{
  "transactions": [
    {
      "hash": "0x11dc00f79b3165d73469d9db75368408decfb3b3ad082281c75e23293243561e",
      "transactionType": "CALL",
      "contractName": null,
      "contractAddress": "0x779877a7b0d9e8603169ddbd7836e478b4624789",
      "function": "transferAndCall(address,uint256,bytes)",
      "arguments": [
        "0x9DdfaCa8183c41ad55329BdeeD9F6A8d53168B1B",
        "3000000000000000000",
        "0x31c01065d794882b3a3d7e109e8633346c776621776c98be2a17d8c8b82769a5"
      ],
      "transaction": {
        "from": "0xe18feb773446f666076e2ba7dfce323f32fa7f35",
        "to": "0x779877a7b0d9e8603169ddbd7836e478b4624789",
        "gas": "0x1c1ff",
        "value": "0x0",
        "input": "0x4000aea00000000000000000000000009ddfaca8183c41ad55329bdeed9f6a8d53168b1b00000000000000000000000000000000000000000000000029a2241af62c00000000000000000000000000000000000000000000000000000000000000000060000000000000000000000000000000000000000000000000000000000000002031c01065d794882b3a3d7e109e8633346c776621776c98be2a17d8c8b82769a5",
        "nonce": "0x1e",
        "chainId": "0xaa36a7"
      },
      "additionalContracts": [],
      "isFixedGasLimit": false
    }
  ],
  "receipts": [
    {
      "status": "0x1",
      "cumulativeGasUsed": "0x12dbdf2",
      "logs": [
        {
          "address": "0x779877a7b0d9e8603169ddbd7836e478b4624789",
          "topics": [
            "0xddf252ad1be2c89b69c2b068fc378daa952ba7f163c4a11628f55a4df523b3ef",
            "0x000000000000000000000000e18feb773446f666076e2ba7dfce323f32fa7f35",
            "0x0000000000000000000000009ddfaca8183c41ad55329bdeed9f6a8d53168b1b"
          ],
          "data": "0x00000000000000000000000000000000000000000000000029a2241af62c0000",
          "blockHash": "0x5aec186c6de31b3951e4cfdb98d0d21aae51b80857f2e0c7b0c9e9dc6dda1108",
          "blockNumber": "0x829e05",
          "blockTimestamp": "0x684fd56c",
          "transactionHash": "0x11dc00f79b3165d73469d9db75368408decfb3b3ad082281c75e23293243561e",
          "transactionIndex": "0xa9",
          "logIndex": "0x88",
          "removed": false
        },
        {
          "address": "0x779877a7b0d9e8603169ddbd7836e478b4624789",
          "topics": [
            "0xe19260aff97b920c7df27010903aeb9c8d2be5d310a2c67824cf3f15396e4c16",
            "0x000000000000000000000000e18feb773446f666076e2ba7dfce323f32fa7f35",
            "0x0000000000000000000000009ddfaca8183c41ad55329bdeed9f6a8d53168b1b"
          ],
          "data": "0x00000000000000000000000000000000000000000000000029a2241af62c00000000000000000000000000000000000000000000000000000000000000000040000000000000000000000000000000000000000000000000000000000000002031c01065d794882b3a3d7e109e8633346c776621776c98be2a17d8c8b82769a5",
          "blockHash": "0x5aec186c6de31b3951e4cfdb98d0d21aae51b80857f2e0c7b0c9e9dc6dda1108",
          "blockNumber": "0x829e05",
          "blockTimestamp": "0x684fd56c",
          "transactionHash": "0x11dc00f79b3165d73469d9db75368408decfb3b3ad082281c75e23293243561e",
          "transactionIndex": "0xa9",
          "logIndex": "0x89",
          "removed": false
        },
        {
          "address": "0x9ddfaca8183c41ad55329bdeed9f6a8d53168b1b",
          "topics": [
            "0x1ced9348ff549fceab2ac57cd3a9de38edaaab274b725ee82c23e8fc8c4eec7a",
            "0x31c01065d794882b3a3d7e109e8633346c776621776c98be2a17d8c8b82769a5"
          ],
          "data": "0x000000000000000000000000000000000000000000000000000000000000000000000000000000000000000000000000000000000000000029a2241af62c0000",
          "blockHash": "0x5aec186c6de31b3951e4cfdb98d0d21aae51b80857f2e0c7b0c9e9dc6dda1108",
          "blockNumber": "0x829e05",
          "blockTimestamp": "0x684fd56c",
          "transactionHash": "0x11dc00f79b3165d73469d9db75368408decfb3b3ad082281c75e23293243561e",
          "transactionIndex": "0xa9",
          "logIndex": "0x8a",
          "removed": false
        }
      ],
      "logsBloom": "0x00000004000000000000000000000000000000000020000000000000020000000000000000000000000000000000000000000004000000000000000000000000000000000000000000000008000000000000000000000000000020000020000008000000880000000000000000000000000000000000000000000010000040000000000000008000000000010000800000000020000000010000000000000000000000000000008000000000010000000000000000000000000004000000000000000002000000000000000000000000000000000000000100000000000000000010000000000000800000000000000000000000000000000000000000000000",
      "type": "0x2",
      "transactionHash": "0x11dc00f79b3165d73469d9db75368408decfb3b3ad082281c75e23293243561e",
      "transactionIndex": "0xa9",
      "blockHash": "0x5aec186c6de31b3951e4cfdb98d0d21aae51b80857f2e0c7b0c9e9dc6dda1108",
      "blockNumber": "0x829e05",
      "gasUsed": "0x133b1",
      "effectiveGasPrice": "0xf42a4",
      "from": "0xe18feb773446f666076e2ba7dfce323f32fa7f35",
      "to": "0x779877a7b0d9e8603169ddbd7836e478b4624789",
      "contractAddress": null
    }
  ],
  "libraries": [],
  "pending": [],
  "returns": {},
  "timestamp": 1750062445,
  "chain": 11155111,
  "commit": null
}